{
    "contractName": "simple",
    "abi": [
        {
            "constant": true,
            "inputs": [],
            "name": "getVal",
            "outputs": [
                {
                    "name": "",
                    "type": "uint256"
                }
            ],
            "payable": false,
            "stateMutability": "view",
            "type": "function"
        }
    ],
    "bytecode": "60806040526045600055348015601457600080fd5b506093806100236000396000f3fe6080604052600436106038577c01000000000000000000000000000000000000000000000000000000006000350463e1cb0e528114603d575b600080fd5b348015604857600080fd5b50604f6061565b60408051918252519081900360200190f35b6000549056fea165627a7a723058201d56ae23f5baf31e2445fa95d7614fbad1741c30645336e201f46e4e5772b2350029",
    "sourcePath": "c:/Users/utkar/Desktop/Skills/Block Chain/Solidity/simple.sol",
    "compiler": {
        "name": "solc",
        "version": "0.5.1+commit.c8a2cb62"
    },
    "functionHashes": {
        "getVal()": "e1cb0e52"
    },
    "gasEstimates": {
        "creation": {
            "codeDepositCost": "29400",
            "executionCost": "20087",
            "totalCost": "49487"
        },
        "external": {
            "getVal()": "378"
        }
    }
}